:020000040000FA
:100000000C94DD000C9405010C9405010C94050181
:100010000C9405010C9405010C9405010C94050148
:100020000C9405010C9405010C9405010C94050138
:100030000C9405010C9405010C9405010C94050128
:100040000C9424080C9405010C9494080C946E08EC
:100050000C9405010C9405010C9405010C94050108
:100060000C9405010C940501556E6B6E6F776E2034
:100070006572726F720041204D49464152452050D1
:1000800049434320726573706F6E646564207769BD
:100090007468204E414B2E00546865204352435FE4
:1000A0004120646F6573206E6F74206D61746368A6
:1000B0002E00496E76616C696420617267756D65AA
:1000C0006E742E00496E7465726E616C206572727A
:1000D0006F7220696E2074686520636F64652E20DE
:1000E00053686F756C64206E6F7420686170706502
:1000F0006E2E004120627566666572206973206EFF
:100100006F742062696720656E6F7567682E005492
:10011000696D656F757420696E20636F6D6D756EA6
:1001200069636174696F6E2E00436F6C6C697369EB
:100130006F6E2064657465637465642E0045727229
:100140006F7220696E20636F6D6D756E6963617487
:10015000696F6E2E00537563636573732E00000024
:1001600000002300260029000000000024002700D2
:100170002A0000000000250028002B0004040404CD
:100180000404040402020202020203030303030341
:10019000010204081020408001020408102001021E
:1001A00004081020000000080002010000030407FA
:1001B0000000000000000000C60811241FBECFEFA1
:1001C000D8E0DEBFCDBF11E0A0E0B1E0E0E2F7E1B2
:1001D00002C005900D92A43DB107D9F722E0A4ED2D
:1001E000B1E001C01D92A139B207E1F710E0CDEDF9
:1001F000D0E004C02197FE010E947F0BCC3DD107C7
:10020000C9F70E94FD080C948E0B0C9400008CBD65
:100210009DBD0895833081F028F4813099F08230BB
:10022000A9F008958730A9F08830C9F08430B1F47E
:10023000809180008F7D03C0809180008F778093B4
:100240008000089584B58F7784BD089584B58F7D2F
:10025000FBCF8091B0008F778093B000089580919C
:10026000B0008F7DF9CF1F93CF93DF93282F30E01D
:10027000F901EC55FE4F8491F901E057FE4FD491FE
:10028000F901E458FE4FC491CC23A9F0162F811137
:100290000E940A01EC2FF0E0EE0FFF1FEE58FE4F18
:1002A000A591B4918FB7F894EC91111108C0D09535
:1002B000DE23DC938FBFDF91CF911F910895DE2B5A
:1002C000F8CFCF93DF9390E0FC01E057FE4F2491ED
:1002D00084589E4FFC0184918823D1F090E0880FD0
:1002E000991FFC01E859FE4FA591B491FC01EE580D
:1002F000FE4FC591D49161110EC09FB7F8948C91B7
:10030000E22FE0958E238C932881E223E8839FBF20
:10031000DF91CF9108958FB7F894EC91E22BEC9395
:100320008FBFF6CF3FB7F8948091DA019091DB014F
:10033000A091DC01B091DD0126B5A89B05C02F3F3F
:1003400019F00196A11DB11D3FBFBA2FA92F982FFB
:100350008827BC01CD01620F711D811D911D42E0F6
:10036000660F771F881F991F4A95D1F708958F92BE
:100370009F92AF92BF92CF92DF92EF92FF924B018A
:100380005C010E9492016B017C010E9492016C1938
:100390007D098E099F09683E734081059105A8F388
:1003A00021E0821A9108A108B10888EEC80E83E006
:1003B000D81EE11CF11C81149104A104B10429F799
:1003C000FF90EF90DF90CF90BF90AF909F908F9075
:1003D0000895AF92BF92CF92DF92EF92FF920F9368
:1003E0001F93CF93DF936C017B018B01040F151FCB
:1003F000EB015E01AE18BF08C017D10759F0699133
:10040000D601ED91FC910190F081E02DC601099596
:10041000892B79F7C501DF91CF911F910F91FF9043
:10042000EF90DF90CF90BF90AF900895FC01538D77
:10043000448D252F30E0842F90E0821B930B5417BE
:1004400010F0CF96089501970895FC01918D828D4B
:10045000981761F0A28DAE0FBF2FB11D5D968C91E4
:10046000928D9F5F9F73928F90E008958FEF9FEF23
:100470000895FC01918D828D981731F0828DE80FDF
:10048000F11D858D90E008958FEF9FEF0895FC0199
:10049000918D228D892F90E0805C9F4F821B910966
:1004A0008F739927089584EE91E00E94470221E01E
:1004B000892B09F420E0822F089580E090E0892BB9
:1004C00029F00E94530281110C9400000895FC0150
:1004D000A48DA80FB92FB11DA35ABF4F2C91848DA5
:1004E00090E001968F739927848FA689B7892C9302
:1004F000A089B1898C91837080648C93938D848D55
:10050000981306C00288F389E02D80818F7D808357
:100510000895EF92FF920F931F93CF93DF93EC0117
:1005200081E0888F9B8D8C8D98131AC0E889F9899A
:10053000808185FF15C09FB7F894EE89FF8960839D
:10054000E889F98980818370806480839FBF81E01E
:1005500090E0DF91CF911F910F91FF90EF90089560
:10056000F62E0B8D10E00F5F1F4F0F731127E02E3B
:100570008C8D8E110CC00FB607FCFACFE889F98973
:10058000808185FFF5CFCE010E946702F1CFEB8D10
:10059000EC0FFD2FF11DE35AFF4FF0829FB7F89447
:1005A0000B8FEA89FB8980818062CFCFCF93DF9365
:1005B000EC01888D8823B9F0AA89BB89E889F9897B
:1005C0008C9185FD03C0808186FD0DC00FB607FCB0
:1005D000F7CF8C9185FFF2CF808185FFEDCFCE01E3
:1005E0000E946702E9CFDF91CF910895BC016E5F51
:1005F0007F4FDC01ED91FC910190F081E02D40E016
:10060000099591E0811190E0892F08958430F1F0EF
:1006100050F4813091F030F1823091F0833099F0D4
:1006200088E690E008958630B9F098F08730B9F008
:100630008F3FB1F786E790E008958DE391E008954C
:1006400089E291E008958FE091E0089583EF90E0D2
:10065000089584EC90E0089582EB90E0089588E995
:1006600090E0089585E591E0089508958EBD00001D
:100670000DB407FEFDCF8EB50895DF92EF92FF9285
:100680000F931F93CF93DF937C01062FD42E152F4A
:1006900080E590E00E94070160E0F70186850E94F6
:1006A000330182E10E943603CD2DD12F0C0F1D2F77
:1006B000111DC017D10721F089910E943603F9CF8F
:1006C00061E0F7018685DF91CF911F910F91FF9037
:1006D000EF90DF900C9433011F93CF93DF93EC01E5
:1006E000162F80E590E00E94070160E08E850E9451
:1006F0003301812F80680E94360380E00E94360318
:10070000182F61E08E850E943301812FDF91CF91F8
:100710001F9108950F931F93CF93DF93EC01062F42
:10072000142F80E590E00E94070160E08E850E9412
:100730003301802F0E943603812F0E94360361E02F
:100740008E85DF91CF911F910F910C943301CF9241
:10075000DF92EF92FF920F931F93CF93DF93EC0101
:100760006B01F42E890140E062E00E948A0344E0BC
:100770006AE0CE010E948A0340E864E1CE010E9453
:100780008A03A6016F2DCE010E943D0343E062E083
:10079000CE010E948A038FB7F894C090D601D09002
:1007A000D701E090D801F090D9018FBF89E5C80E3C
:1007B000D11CE11CF11C6AE0CE010E946C0382FF97
:1007C0001BC040E062E0CE010E948A0364E4CE01D7
:1007D0000E946C03F801808362E4CE010E946C03E6
:1007E000F801818380E0DF91CF911F910F91FF90FD
:1007F000EF90DF90CF9008952FB7F8948091D601B5
:100800009091D701A091D801B091D9012FBF8C153B
:100810009D05AE05BF0578F283E0E5CF2F923F92AC
:100820004F925F926F927F928F929F92AF92BF9200
:10083000CF92DF92EF92FF920F931F93CF93DF93AC
:1008400000D0CDB7DEB73C01162F942E290180E0F1
:10085000A114B10411F0F5018081382C329490EF8D
:100860003922380E40E062E0C3010E948A034FE75C
:1008700068E0C3010E948A0340E864E1C3010E946A
:100880008A03A201602FC3010E943D03432D6AE148
:10089000C3010E948A03412F62E0C3010E948A03C0
:1008A0001C3051F46AE1C3010E946C03482F406878
:1008B0006AE1C3010E948A038FB7F8942090D601A1
:1008C0003090D7014090D8015090D9018FBFF4E209
:1008D0002F0E311C411C511C68E0C3010E946C03A7
:1008E000982F992109F0BFC080FF16C083E00F90B8
:1008F0000F90DF91CF911F910F91FF90EF90DF90BC
:10090000CF90BF90AF909F908F907F906F905F90AF
:100910004F903F902F9008952FB7F8948091D60173
:100920009091D701A091D801B091D9012FBF821524
:100930009305A405B50580F2D9CFE114F10409F4BB
:1009400067C0C114D10409F463C064E1C3010E940B
:100950006C03982EF6018081891508F47EC0908280
:100960009920C9F180E590E00E94070160E0F30161
:1009700086850E9433019A9482E90E94360388207A
:1009800099F00FEF10E001C0000F8A94EAF782E9B6
:100990000E943603902F9095F701208192238023A7
:1009A000982B9083882483948701080D111D891446
:1009B00040F482E90E943603F80181938F01839409
:1009C000F6CF80E00E943603F801808361E0F301F6
:1009D00086850E94330168E1C3010E946C03877021
:1009E000A114B10411F0F501808353FC38C0E11467
:1009F000F104B9F1C114D104A1F19F89992389F1BE
:100A0000F6014081413031F4843029F58FEF6FCF0A
:100A100080E0EBCF4230F8F081111DC042509E01C2
:100A20002F5F3F4FB701C3010E94A70381115FCF22
:100A3000F6019081E90EF11CF7013297208199812E
:100A4000291309C0F1E0EF1AF108F70120819A811A
:100A5000291709F44CCF87E04ACF84E048CF82E0E1
:100A600046CF80E044CF6CE0C3010E946C03582E57
:100A7000837109F462CF81E03ACF8F92AF92BF9237
:100A8000CF92DF92EF92FF920F93CF93DF93CDB788
:100A9000DEB72C970FB6F894DEBF0FBECDBF90E641
:100AA00099838A83EEEDF1E0DE01139681918D93B7
:100AB00081E0E43EF807D1F7E0918302E150FF0BBB
:100AC000EF57FD4FDE011996CE010D9621912D9322
:100AD000A817B907D9F71F92812CB12CA12CD12CC2
:100AE000C12CF12CE12C0CE09E012F5F3F4F40E127
:100AF0006EE081E892E00E940E040F902C960FB6F3
:100B0000F894DEBF0FBECDBFDF91CF910F91FF9064
:100B1000EF90DF90CF90BF90AF908F9008950F939C
:100B20001F93CF93DF938C01D62FC42F0E946C03A9
:100B3000C0954C2F48236D2FC801DF91CF911F9195
:100B40000F910C948A036F927F928F92AF92BF9213
:100B5000CF92DF92EF92FF920F93CF93DF9300D06B
:100B600000D01F92CDB7DEB73C0182E08D8340E01C
:100B700064E2C3010E948A0340E066E2C3010E946E
:100B80008A0346E268E4C3010E948A0386E28B83FB
:100B90008D818230C8F140E86CE1C3010E948F056D
:100BA00087E08C831F92812CCE0104965C01019614
:100BB0006C0104977C0101E09E012D5F3F4F40E3F3
:100BC0006CE0C3010E940E04982F0F90811119C090
:100BD0008D818230C9F48C81811116C081E00F9023
:100BE0000F900F900F900F90DF91CF910F91FF908A
:100BF000EF90DF90CF90BF90AF908F907F906F90ED
:100C0000089581E0923059F380E0E9CF2F923F922E
:100C10004F925F926F927F928F929F92AF92BF920C
:100C2000CF92DF92EF92FF920F931F93CF93DF93B8
:100C3000CDB7DEB72E970FB6F894DEBF0FBECDBF8F
:100C400006E0413508F046C14E873B012C0140E8E3
:100C50006CE10E948F0583E989832E85222329F088
:100C600081E0F3019081953008F480E09924939419
:100C70001C869C85990F990F990F1E85191B17FDCE
:100C800010E032E0882319F098E89B8333E021E0FC
:100C9000912F977009F420E0912F95959595959552
:100CA000290FD1F094E0811193E0291708F4922FD5
:100CB0002C85E22FF0E03196E60DF71D232F4191B0
:100CC000A1E0B0E0AC0FBD1FA20FB11D4C932F5F90
:100CD000422F431B491798F38111185F10320CF40F
:100CE00084C080E78A838B819C8189279D818927A5
:100CF0009E8189278F839E01285F3F4F47E0BE0179
:100D00006F5F7F4FC2010E94A703082F8111E2C0CD
:100D10001A8693E09B871D87FE0137961F0109E025
:100D20008A84482D4295407F480D6AE1C2010E94A5
:100D30008A031F92CE010A965C01FE013B966F0169
:100D400071019E012F5F3F4F40E36CE0C2010E94A2
:100D50000E04082F0F90823009F065C06CE1C201CB
:100D60000E946C0385FDB6C08F7109F480E2282FC4
:100D700030E0412F110F550B421753070CF09EC066
:100D8000182FE22FE595E595E595EF5F922F977087
:100D900081E009F480E0E80F81E090E08C0F9D1F76
:100DA0008E0F911DFC01215031092770332781E0FE
:100DB00090E002C0880F991F2A95E2F79C0180817C
:100DC000822B80838BCF85E98983FE85FF2331F0D9
:100DD00081E0F3019081983008F04BCF80E049CF5B
:100DE00087E98983F6E0FC87F9CF912F97709A877E
:100DF000812F8595859585958E5F282F2295207F5B
:100E0000290F2A8301E0911101C000E0080F22247C
:100E10002394312C2C0E3D1E280E311CF9E0F81BBA
:100E2000FB871D877DCF811155C010E29D859032D3
:100E30000CF457CF8B81883809F042C083E093E0EF
:100E40002C85E22FF0E03196E60DF71D980FA1E01A
:100E5000B0E0AC0FBD1FA80FB11D2C9121938F5F87
:100E60008913F5CF8B858C87833009F04DC08A8537
:100E700081114AC09E012D5F3F4F41E0B101C20187
:100E80000E94A703082F811125C09B81F101818158
:100E900098133CC09C818281981338C0808182FF66
:100EA00012C09394F2E09F1609F48DCF23E09216BE
:100EB00009F496CF81E0981609F4CDCE05E00AC07A
:100EC00082E094E0BDCFF3018387892D880F980ECF
:100ED00093949082802F2E960FB6F894DEBF0FBEAB
:100EE000CDBFDF91CF911F910F91FF90EF90DF90D9
:100EF000CF90BF90AF909F908F907F906F905F90BA
:100F00004F903F902F90089501E0E4CF07E0E2CFAB
:100F10008F92AF92BF92CF92DF92EF92FF920F9398
:100F2000CF93DF93CDB7DEB764970FB6F894DEBFEB
:100F30000FBECDBF062FE62EF12CA701BC01CE01BE
:100F400001960E94850B21E030E02C0F3D1F2E0DF5
:100F50003F1D402FBE016F5F7F4F81E892E00E94EE
:100F6000A703811123C082E18C8B1B8A0E5F1F9225
:100F7000812CCE0143965C0101966C0143977C0164
:100F80009C0140E36CE081E892E00E940E040F9027
:100F900081110CC08C898130D1F48B898430B9F4F3
:100FA00081E099819A3009F480E0819564960FB6CA
:100FB000F894DEBF0FBECDBFDF91CF910F91FF90B0
:100FC000EF90DF90CF90BF90AF908F90089581E029
:100FD000EDCFFC0101900020E9F73197AF01481BEC
:100FE000590BBC0184EE91E00C94E9010F931F931F
:100FF000CF93DF938C01D0E0C0E0F801EC0FFD1F30
:101000006491662341F084EE91E00E948902892B6D
:1010100011F02196F2CF8CE191E00E94E9078C0F4C
:101020009D1FDF91CF911F910F910895CF93DF9373
:101030000E94E907EC018CE191E00E94E9078C0F26
:101040009D1FDF91CF9108951F920F920FB60F92BF
:1010500011242F933F938F939F93AF93BF938091CE
:10106000D6019091D701A091D801B091D9013091CA
:10107000D50123E0230F2D3758F50196A11DB11D91
:101080002093D5018093D6019093D701A093D801E6
:10109000B093D9018091DA019091DB01A091DC013C
:1010A000B091DD010196A11DB11D8093DA019093ED
:1010B000DB01A093DC01B093DD01BF91AF919F9163
:1010C0008F913F912F910F900FBE0F901F90189509
:1010D00026E8230F0296A11DB11DD2CF1F920F92B9
:1010E0000FB60F9211242F933F934F935F936F93FB
:1010F0007F938F939F93AF93BF93EF93FF9384EE70
:1011000091E00E946702FF91EF91BF91AF919F9193
:101110008F917F916F915F914F913F912F910F90A0
:101120000FBE0F901F9018951F920F920FB60F923F
:1011300011242F938F939F93EF93FF93E091F401EA
:10114000F091F5018081E091FA01F091FB0182FDBF
:101150001BC090818091FD018F5F8F732091FE01F4
:10116000821741F0E091FD01F0E0EC51FE4F958FC8
:101170008093FD01FF91EF919F918F912F910F909F
:101180000FBE0F901F9018958081F4CFE4EEF1E030
:101190001382128288EE93E0A0E0B0E0848395830E
:1011A000A683B78384E091E09183808385EC90E00F
:1011B0009587848784EC90E09787868780EC90E021
:1011C000918B808B81EC90E0938B828B82EC90E012
:1011D000958B848B86EC90E0978B868B118E128E8C
:1011E000138E148EE1E8F2E086E191E09183808332
:1011F00085E086878BE187870895CF93DF93CDB70E
:10120000DEB766970FB6F894DEBF0FBECDBF7894F9
:1012100084B5826084BD84B5816084BD85B58260FB
:1012200085BD85B5816085BD80916E0081608093AC
:101230006E00109281008091810082608093810015
:101240008091810081608093810080918000816025
:10125000809380008091B10084608093B100809180
:10126000B00081608093B00080917A0084608093A8
:101270007A0080917A00826080937A0080917A006F
:10128000816080937A0080917A00806880937A00F0
:101290001092C100E091F401F091F50182E08083A9
:1012A000E091F001F091F1011082E091F201F091F2
:1012B000F30180E180831092FC01E091F801F0914C
:1012C000F90186E08083E091F601F091F7018081D9
:1012D00080618083E091F601F091F7018081886060
:1012E0008083E091F601F091F7018081806880832E
:1012F000E091F601F091F70180818F7D808361E0BC
:101300008AE10E94610161E089E10E9461011FB7E9
:10131000F8948091D401811127C0E6E8F1E084912E
:10132000EAE9F1E09491E82FF0E0EE0FFF1FE859B1
:10133000FE4FA591B491EC91E92321F461E08AE09C
:101340000E94330161E08AE00E9461018CB58061F6
:101350008CBD8CB580648CBD61E08DE00E94610124
:1013600061E08BE00E9461018091D4018F5F8093E6
:10137000D4011FBF61E080918F020E94610161E092
:1013800080918F020E943301809190028F3F09F477
:101390006DC160E00E9461012091900230E0F9018E
:1013A000EC55FE4F8491F901E057FE4F0491F9018D
:1013B000E458FE4F149111114AC161E080919002EE
:1013C0000E94610160E0809190020E94330183E0FD
:1013D00090E00197F1F761E0809190020E94330163
:1013E00062E370E080E090E00E94B70140E064E2D8
:1013F00081E892E00E948A0340E066E281E892E0A0
:101400000E948A0346E268E481E892E00E948A032F
:1014100040E864E581E892E00E948A0349EA66E5D3
:1014200081E892E00E948A0343E068E581E892E067
:101430000E948A0348EE6AE581E892E00E948A03EE
:1014400040E46AE281E892E00E948A034DE362E2AE
:1014500081E892E00E948A0368E281E892E00E94BB
:101460006C03982F9370933039F0482F436068E2F3
:1014700081E892E00E948A038FE191E00E941608C1
:101480008FEF8093DE018093DF018093E0018093F2
:10149000E1018093E2018093E30161E08AE10E942F
:1014A000330160E089E10E9433012E0181E1480EA1
:1014B000511C30EA232E20E0622E20E0722E82E1C1
:1014C000982E90E5392E81E892E00E94A3058823AA
:1014D00009F4B1C081E892E00E94F602882309F481
:1014E000AAC089E391E00E94160884E00E943D05AD
:1014F000182F8CE491E01111ECC0298204E00A83DA
:1015000062E0CE0101960E948807182F8111DFC08A
:1015100060E18BE591E00E948807182F8111D7C008
:101520008EE691E00E94160861E089E10E94330195
:1015300068EC70E080E090E00E94B7019B8A84E054
:101540000E943D05182F8CE491E011112FC08B896A
:10155000823108F4A2C080E389830A839E012D5F53
:101560003F4F42E0BE016F5F7F4F81E892E00E94F3
:10157000A703182F811118C081E08F93812CB12C03
:10158000A12CFE0173966F01CE0101967C0104E04F
:101590009C0140E36CE081E892E00E940E04182F69
:1015A0000F90882309F47BC08BE791E00E94E90744
:1015B000812F0E9406030E94F6078BE991E00E94AA
:1015C000160861E08AE10E94330160ED77E080E077
:1015D00090E00E94B70160E089E10E94330160E081
:1015E0008AE10E9433013B8A1C8A9E012B5E3F4F99
:1015F00042E0BE016D5E7F4F81E892E00E94A7034A
:10160000811113C01F92812CB12CA12CD12CC12C83
:10161000F12CE12C04E09E012D5E3F4F40E36CE095
:1016200081E892E00E940E040F9048E060E181E8BA
:1016300092E00E948F056114710409F444CF0E9466
:101640005302882309F43BCF0E94000034CF81115C
:101650000E940A01E12FF0E0EE0FFF1FE25AFE4F59
:10166000A591B491EC910E2309F4A7CE4FE062E06E
:1016700081E892E00E948A0313E062E370E080E078
:1016800090E00E94B70162E081E892E00E946C0362
:1016900084FFACCE115089F7A9CE14E085CF8DE838
:1016A00091E00E94E9078E010F5F1F4FF8016191E1
:1016B0008F0184EE91E00E94890204151505B1F7AF
:1016C0008CE191E00E94E90761E089E17CCF8FEB3A
:1016D00091E00E94E907812F0E9406030E94F6070D
:1016E0008CEA91E00E94160861E08AE10E943301D1
:1016F00060ED77E080E090E00E94B7019CCFEE0FB4
:10170000FF1F0590F491E02D0994FB01DC0102C05C
:1017100001900D9241505040D8F70895F894FFCFB2
:10172000000000008902E9011602D60247022502E4
:101730003902000000000606A305F6020D0A00416A
:101740007070726F63686520756E20626164676592
:1017500020524649442E2E2E004361727465206447
:10176000C3A974656374C3A96520210041757468B9
:1017700020657272657572203A200048454C4C4FC6
:101780002046524F4D204553503332212100C3890A
:1017900063726974757265204F4B004C6563747594
:1017A000726520657272657572203A20004C65631F
:1017B00074757265204F4B203A2000457272657532
:1017C00072206C65637475726520210045727265C4
:1017D000757220C3A963726974757265202100C394
:1017E000896372697475726520657272657572209D
:0417F0003A2000009B
:107E0000112484B714BE81FFF0D085E080938100F7
:107E100082E08093C00088E18093C10086E0809377
:107E2000C20080E18093C4008EE0C9D0259A86E02C
:107E300020E33CEF91E0309385002093840096BBD3
:107E4000B09BFECF1D9AA8958150A9F7CC24DD24C4
:107E500088248394B5E0AB2EA1E19A2EF3E0BF2EE7
:107E6000A2D0813461F49FD0082FAFD0023811F036
:107E7000013811F484E001C083E08DD089C08234E0
:107E800011F484E103C0853419F485E0A6D080C0E4
:107E9000853579F488D0E82EFF2485D0082F10E0AE
:107EA000102F00270E291F29000F111F8ED06801E7
:107EB0006FC0863521F484E090D080E0DECF843638
:107EC00009F040C070D06FD0082F6DD080E0C81688
:107ED00080E7D80618F4F601B7BEE895C0E0D1E017
:107EE00062D089930C17E1F7F0E0CF16F0E7DF06D8
:107EF00018F0F601B7BEE89568D007B600FCFDCFD4
:107F0000A601A0E0B1E02C9130E011968C91119780
:107F100090E0982F8827822B932B1296FA010C0160
:107F200087BEE89511244E5F5F4FF1E0A038BF0790
:107F300051F7F601A7BEE89507B600FCFDCF97BE46
:107F4000E89526C08437B1F42ED02DD0F82E2BD052
:107F50003CD0F601EF2C8F010F5F1F4F84911BD097
:107F6000EA94F801C1F70894C11CD11CFA94CF0C13
:107F7000D11C0EC0853739F428D08EE10CD085E9AC
:107F80000AD08FE07ACF813511F488E018D01DD067
:107F900080E101D065CF982F8091C00085FFFCCF94
:107FA0009093C60008958091C00087FFFCCF809118
:107FB000C00084FD01C0A8958091C6000895E0E648
:107FC000F0E098E1908380830895EDDF803219F02E
:107FD00088E0F5DFFFCF84E1DECF1F93182FE3DFCA
:107FE0001150E9F7F2DF1F91089580E0E8DFEE27F6
:047FF000FF270994CA
:027FFE00040479
:00000001FF
